:020000040800F2
:102000002804002001210008092100080B210008F4
:102010000D2100080F210008112100080000000018
:102020000000000000000000000000001321000874
:1020300015210008000000001721000805230008F2
:102040001B2100081B2100081B2100081B21000880
:102050001B2100081B2100081B2100081B21000870
:102060001B2100081B2100081B2100081B21000860
:102070001B2100081B2100081B2100081B21000850
:102080001B2100081B2100081B2100081B21000840
:102090001B2100081B2100081B2100081B21000830
:1020A0001B2100081B2100081B2100081B21000820
:1020B0001B2100081B2100081B2100081B21000810
:1020C0001B2100081B2100081B2100081B21000800
:1020D0001B210008592300081B2100081B210008B0
:1020E0001B2100081B2100081B210008DFF80CD071
:1020F00000F018F8004800473924000828040020A0
:102100000648804706480047FEE7FEE7FEE7FEE791
:10211000FEE7FEE7FEE7FEE7FEE7FEE7092300082D
:10212000ED200008064C074D06E0E06840F0010392
:1021300094E8070098471034AC42F6D3FFF7DAFF73
:1021400088240008A8240008084814220178491CA3
:10215000B1FBF2F302FB1312027005484FF4005179
:102160000A2A01D200F057B800F057B81400002036
:1021700000100140F0B5CA78002502F00F03D20626
:1021800001D58A7813430A784FF00F0E12F0FF0F33
:102190004FF001021CD004680F8802FA05F63740A0
:1021A000B74211D14FEA850C0EFA0CF724EA070763
:1021B00003FA0CF43C43CF78282F02D0482F02D0EA
:1021C00002E0466100E006616D1C082DE4D3046066
:1021D0000C88FF2C1ED944685FF0000606F1080742
:1021E00002FA07F50F882F40AF420FD14FEA860C55
:1021F0000EFA0CF7BC4303FA0CF73C43CF78282FB8
:1022000000D14561CF78482F00D10561761C082E9A
:10221000E4D34460F0BD4161704701617047000044
:10222000024A1140014302480160704780FFFF1FCE
:1022300008ED00E0044A0029916901D0014300E063
:102240008143916170470000001002400CB50021ED
:10225000264801910091026842F4803202604FF4F6
:10226000A063026802F400320092019A521C0192AB
:10227000009A12B9019A9A42F3D10268920333D5B7
:10228000012100911A490A6842F010020A600A68A6
:1022900022F007020A600A6842F002020A604168FE
:1022A000416041684160416841F48061416041683A
:1022B00021F47C114160416841F4E81141600168FA
:1022C00041F08071016001688901FCD5416821F00D
:1022D00003014160416841F0020141604168C1F37E
:1022E00081010229FAD10CBD00910CBD0010024001
:1022F0000020024002498860002048600870704752
:102300001800002000F0B0B80F4810B5016841F087
:102310000101016041680D4A1140416001680C4AA9
:1023200011400160016821F480210160416821F4BD
:10233000FE0141604FF41F018160FFF787FF0549EF
:102340004FF00060086010BD001002400000FFF870
:10235000FFFFF6FE08ED00E040F22551014800F0D5
:1023600003B800000038014030B501F01F0201241D
:102370000025C1F3421304FA02F2012B0FD0022B05
:102380000FD0838A4FEA11210088134204FA01F426
:1023900000EA040001D000B10125284630BD838940
:1023A000F0E7038AEEE702E008C8121F08C1002A1E
:1023B000FAD170477047002001E001C1121F002AC6
:1023C000FBD1704738B501211020FFF733FF4FF4E0
:1023D0000054ADF8004010208DF803000320064D96
:1023E0008DF8020069462846FFF7C4FE21462846BC
:1023F000FFF713FF38BD0000001001400C484FF4F8
:102400007A710068B0FBF1F0B0F1807F0ED220F05D
:102410007F414FF0E020491E4161064AF02182F8D9
:10242000141D00218161072101617047FEE7000052
:10243000000000200FE000E009498803FFF7F0FEEC
:10244000FFF7C0FFFFF7DAFF3220FFF753FF054C1D
:10245000002520780028FCD02570FFF775FEF8E7EE
:10246000002000081800002006484168491C41600F
:1024700041688268914203D30021416001210170CB
:102480007047000018000020A82400080000002069
:1024900024000000A6230008CC240008240000200B
:1024A00004040000B623000800A24A040000000053
:1024B00000000000010203040607080900000000F4
:0C24C00000000000000000000000000010
:04000005080020EDE2
:00000001FF
