:020000040800F2
:100000004004002001010008090100080B0100085C
:100010000D0100080F010008110100080000000098
:1000200000000000000000000000000013010008B4
:100030001501000800000000170100089D040008D9
:100040001B0100081B0100081B0100081B01000820
:100050001B0100081B0100081B0100081B01000810
:100060001B0100081B0100081B0100081B01000800
:100070001B0100081B0100081B0100081B010008F0
:100080001B0100081B0100081B0100081B010008E0
:100090001B0100081B0100081B0100081B010008D0
:1000A0001B0100081B0100081B0100081B010008C0
:1000B0001B0100081B0100081B0100081B010008B0
:1000C0001B0100081B0100081B0100081B010008A0
:1000D0001B010008F10400081B0100081B010008B7
:1000E0001B0100081B0100081B010008DFF80CD0F1
:1000F00000F04AF800480047890A00084004002040
:100100000648804706480047FEE7FEE7FEE7FEE7B1
:10011000FEE7FEE7FEE7FEE7FEE7FEE7A1040008D4
:10012000ED0000082DE9F05F0546002092469B4651
:1001300088460646814640241BE0284641464746FD
:10014000224600F042F853465A46C01A914110D355
:1001500011461846224600F029F82D1A67EB0108CF
:100160004F4622460120002100F020F817EB00093D
:100170004E41201EA4F10104DFDC484631462A46E8
:100180004346BDE8F09F0000064C074D06E0E068DE
:1001900040F0010394E8070098471034AC42F6D3CE
:1001A000FFF7A8FFE80A0008080B0008202A04DB74
:1001B000203A00FA02F1002070479140C2F120037A
:1001C00020FA03F3194390407047202A04DB203AB9
:1001D00021FA02F00021704721FA02F3D040C2F167
:1001E0002002914008431946704700000848142235
:1001F0000178491CB1FBF2F302FB131202700548AF
:100200004FF400510A2A01D200F057B800F057B855
:100210002800002000100140F0B5CA78002502F047
:100220000F03D20601D58A7813430A784FF00F0ED8
:1002300012F0FF0F4FF001021CD004680F8802FA81
:1002400005F63740B74211D14FEA850C0EFA0CF78C
:1002500024EA070703FA0CF43C43CF78282F02D096
:10026000482F02D002E0466100E006616D1C082DB7
:10027000E4D304600C88FF2C1ED944685FF00006AC
:1002800006F1080702FA07F50F882F40AF420FD199
:100290004FEA860C0EFA0CF7BC4303FA0CF73C430A
:1002A000CF78282F00D14561CF78482F00D1056144
:1002B000761C082EE4D34460F0BD416170470161B3
:1002C0007047000070B50F23C47801780122F4B1A3
:1002D000144C2468457804F4E064C4F5E064240A0E
:1002E000C4F10406E3408478B5401C402C4301F17E
:1002F000E021230181F80034007800F01F018A40DA
:100300004009800000F1E020C0F8002170BD01F03C
:100310001F0082404809800000F1E020C0F88021E1
:1003200070BD00000CED00E002490843024908607E
:10033000704700000000FA050CED00E0044A0029B7
:10034000916901D0014300E0814391617047000051
:100350000010024030B51F494A6812F00C031E4AD3
:1003600003D0042B01D0082B21D002604A680F2350
:100370001A4C03EA1212A35C0268DA4042604B682E
:10038000072505EA1323E35C22FA03F383604B6835
:1003900005EAD323E35CDA40C2604968032303EA39
:1003A0009131231F595CB2FBF1F1016130BD4A6804
:1003B0004B6802F470124FF0020413F4803F04EB18
:1003C000924202D04B689B0301D5054B00E0024BE3
:1003D0005A43CAE70010024000127A0004000020CD
:1003E00000093D000CB500212648019100910268EA
:1003F00042F4803202604FF4A063026802F40032DB
:100400000092019A521C0192009A12B9019A9A42E2
:10041000F3D10268920333D5012100911A490A6889
:1004200042F010020A600A6822F007020A600A68B5
:1004300042F002020A6041684160416841604168DF
:1004400041F480614160416821F47C114160416860
:1004500041F4E8114160016841F080710160016878
:100460008901FCD5416821F003014160416841F0F8
:10047000020141604168C1F381010229FAD10CBD3A
:1004800000910CBD0010024000200240024988602B
:1004900000204860087070472C00002000F014BB5A
:1004A0000F4810B5016841F00101016041680D4A33
:1004B0001140416001680C4A11400160016821F45B
:1004C00080210160416821F4FE0141604FF41F0169
:1004D0008160FFF787FF05494FF00060086010BD9D
:1004E000001002400000FFF8FFFFF6FE08ED00E0FC
:1004F00040F22551014800F06AB800000038014080
:1005000070B5044686B001210520FFF717FF4FF4B0
:100510000070ADF8100003208DF812001820214E55
:100520008DF8130004A93046FFF776FE3515ADF8B7
:10053000105048208DF8130004A93046FFF76CFED8
:1005400001213014FFF7FAFEA800ADF80400009472
:10055000ADF8085000240C20134DADF80A00ADF89A
:100560000640ADF80C406946284600F067F80122C5
:1005700040F22551284600F049F84FF4E060FFF7BB
:10058000D3FE25208DF814008DF8164001208DF83B
:10059000170005A8FFF796FE0121284600F006F88F
:1005A00006B070BD00080140003801400029818973
:1005B00002D041F4005101E021F4005181817047E3
:1005C0000246002012880A4200D00120704730B550
:1005D00001F01F0201240025C1F3421304FA02F2C4
:1005E000012B0FD0022B0FD0838A4FEA11210088F4
:1005F000134204FA01F400EA040001D000B101251D
:10060000284630BD8389F0E7038AEEE710B5C1F3D1
:10061000421301F01F040121A140012B07D0022B3E
:1006200007D01430002A026805D00A4304E00C30D9
:10063000F8E71030F6E78A43026010BD30B5044693
:10064000008A85B00D464CF6FF710840E9880143E9
:100650002182A1894EF6F3100140A8882A8910430F
:100660006A890A431043A081A08A4FF6FF410840DF
:10067000A9890143A1826846FFF76CFE19488442AC
:1006800001D1039800E00298A189090400EBC001A0
:1006900001EB0010296801D5490000E08900B0FB9A
:1006A000F1F06422B0FBF2F109010B096FF01805BB
:1006B0006B4300EB8300A3891D044FF0320306D582
:1006C00003EBC000B0FBF2F000F0070005E003EB25
:1006D0000010B0FBF2F000F00F000843208105B0DD
:1006E00030BD000000380140C1F30801818070472F
:1006F0000FB4054B10B503A9044A029800F018F88E
:1007000010BC5DF814FB0000F1090008380000205F
:1007100002E008C8121F08C1002AFAD170477047CA
:10072000002001E001C1121F002AFBD17047000028
:100730002DE9FF4F8DB09B460F460446002606E08C
:1007400025280BD05A460F999047641C761C2078B8
:100750000028F5D111B03046BDE8F08F0025A8463D
:100760000122984900E0054314F8013F203B02FABA
:1007700003F00842F7D120782E2817D114F8010F82
:1007800045F004052A280ED06FF02F022078A0F142
:10079000300109290AD808EB880102EB410100EB7E
:1007A0000108641CF2E757F8048B641C20786C285D
:1007B0000DD004DC4C2812D06A2811D104E0742832
:1007C0000DD07A280CD10AE045F4001507E06178D5
:1007D00045F48015814202D1641C05F58015641C26
:1007E0002278692A45D008DC002AB3D0582A69D07B
:1007F000632A10D0642A08D13BE0702A67D0732A9C
:1008000013D0752A5CD0782A5CD010465A460F99CE
:100810009047761CD3E017F8040B8DF800000020F9
:100820008DF80100E946012003E057F8049B4FF0E2
:10083000FF3069074FF0000501D40AE06D1C454503
:100840000DDA8542FADB19F805100029F6D106E029
:100850006D1C8542FCDB19F805100029F8D12E44E7
:1008600004E019F8010B5A460F9990476D1EF8D213
:10087000A5E00A200021CDE90801C5F302500228B5
:100880000DD001CFC117031E71F100030DDA4FF037
:10089000000CD0EB0C006CEB01012D2308E0FF1DD8
:1008A00027F00707F7E80201EDE72B0504D52B2316
:1008B0008DF8283001233BE0EB0739D02023F7E700
:1008C0000A2000E010200021CDE9080107E01020F7
:1008D000002145F00405CDE908014FF00808C5F3F3
:1008E000025002280FD001CF00214FF0000A2B0741
:1008F0001FD5702A0DD0DDE908C38CF0100C5CEA1E
:10090000030C0CD015E0FF1D27F00707F7E80201E4
:10091000EBE740228DF828204FF0010A0BE050EA67
:10092000010306D030238DF828308DF829200223CA
:100930009A46582A04D024A20DF120090B9209E00E
:1009400026A2F9E7DDE90823FFF7ECFB0B9B9B5C94
:1009500009F8013D50EA0102F4D1ADEB0900203065
:100960000890680701D44FF001080899884502DD16
:10097000A8EB010000E000208046002506E00AA860
:100980005A46405D0F9990476D1C761C5545F6DB25
:1009900004E030205A460F999047761CB8F10001C8
:1009A000A8F10108F5DC05E019F8010B5A460F998A
:1009B0009047761C0899481E08900029F4DC641CB6
:1009C000C5E60000092801003031323334353637AE
:1009D000383961626364656600000000303132338B
:1009E000343536373839414243444546000000002B
:1009F00070B5074D044640212846FFF7E1FD002869
:100A0000F9D0E1B22846FFF76FFE204670BD000026
:100A10000038014038B501211020FFF78FFC4FF45A
:100A20000054ADF8004010208DF803000320064D5F
:100A30008DF8020069462846FFF7EEFB214628465E
:100A4000FFF73DFC38BD0000001001400C484FF49A
:100A50007A710068B0FBF1F0B0F1807F0ED220F027
:100A60007F414FF0E020491E4161064AF02182F8A3
:100A7000141D00218161072101617047FEE700001C
:100A8000140000200FE000E0FFF7C4FF4FF4E13056
:100A9000FFF736FDFFF7DAFF3220FFF7F7FC0649D4
:100AA00006A0FFF725FE074C002520780028FCD083
:100AB0002570FFF79BFBF8E70C080140413A202521
:100AC000780D0A002C00002006484168491C41604E
:100AD00041688268914203D3002141600121017085
:100AE000704700002C000020080B000800000020C8
:100AF0003C00000010070008440B00083C000020E8
:100B0000040400002007000802040608000000009A
:100B100001020304010203040607080900A24A04B3
:100B2000000000000000000001020304060708099D
:100B300000000000000000000000000000000000B5
:040B400000000000B1
:04000005080000ED02
:00000001FF
